{
  "contractName": "SupplyChain",
  "abi": [
    {
      "inputs": [],
      "name": "ordersCount",
      "outputs": [
        {
          "internalType": "uint256",
          "name": "",
          "type": "uint256"
        }
      ],
      "stateMutability": "view",
      "type": "function",
      "constant": true
    },
    {
      "inputs": [],
      "name": "totalOrdersCount",
      "outputs": [
        {
          "internalType": "uint256",
          "name": "",
          "type": "uint256"
        }
      ],
      "stateMutability": "view",
      "type": "function",
      "constant": true
    },
    {
      "inputs": [
        {
          "internalType": "uint256",
          "name": "id",
          "type": "uint256"
        }
      ],
      "name": "getOrder",
      "outputs": [
        {
          "internalType": "uint256",
          "name": "",
          "type": "uint256"
        },
        {
          "internalType": "string",
          "name": "",
          "type": "string"
        },
        {
          "internalType": "string",
          "name": "",
          "type": "string"
        },
        {
          "internalType": "address",
          "name": "",
          "type": "address"
        },
        {
          "internalType": "address",
          "name": "",
          "type": "address"
        },
        {
          "internalType": "address",
          "name": "",
          "type": "address"
        },
        {
          "internalType": "address",
          "name": "",
          "type": "address"
        },
        {
          "internalType": "enum SupplyChain.Status",
          "name": "",
          "type": "uint8"
        }
      ],
      "stateMutability": "view",
      "type": "function",
      "constant": true
    },
    {
      "inputs": [],
      "name": "increaseTotalCount",
      "outputs": [],
      "stateMutability": "nonpayable",
      "type": "function"
    },
    {
      "inputs": [
        {
          "internalType": "uint256",
          "name": "_id",
          "type": "uint256"
        }
      ],
      "name": "getOrderById",
      "outputs": [
        {
          "internalType": "uint256",
          "name": "",
          "type": "uint256"
        }
      ],
      "stateMutability": "view",
      "type": "function",
      "constant": true
    },
    {
      "inputs": [
        {
          "internalType": "string",
          "name": "_title",
          "type": "string"
        },
        {
          "internalType": "string",
          "name": "_description",
          "type": "string"
        },
        {
          "internalType": "address",
          "name": "_supplier",
          "type": "address"
        },
        {
          "internalType": "address",
          "name": "_customer",
          "type": "address"
        },
        {
          "internalType": "address",
          "name": "_deliveryCompany",
          "type": "address"
        },
        {
          "internalType": "address",
          "name": "_customs",
          "type": "address"
        }
      ],
      "name": "createOrder",
      "outputs": [],
      "stateMutability": "nonpayable",
      "type": "function"
    },
    {
      "inputs": [
        {
          "internalType": "uint256",
          "name": "id",
          "type": "uint256"
        }
      ],
      "name": "startProcessingOrder",
      "outputs": [],
      "stateMutability": "nonpayable",
      "type": "function"
    },
    {
      "inputs": [
        {
          "internalType": "uint256",
          "name": "id",
          "type": "uint256"
        }
      ],
      "name": "startDeliveringOrder",
      "outputs": [],
      "stateMutability": "nonpayable",
      "type": "function"
    },
    {
      "inputs": [
        {
          "internalType": "uint256",
          "name": "id",
          "type": "uint256"
        }
      ],
      "name": "stopDeliveringOrder",
      "outputs": [],
      "stateMutability": "nonpayable",
      "type": "function"
    },
    {
      "inputs": [
        {
          "internalType": "uint256",
          "name": "id",
          "type": "uint256"
        }
      ],
      "name": "startCustomsChecking",
      "outputs": [],
      "stateMutability": "nonpayable",
      "type": "function"
    },
    {
      "inputs": [
        {
          "internalType": "uint256",
          "name": "id",
          "type": "uint256"
        }
      ],
      "name": "finishCustomsChecking",
      "outputs": [],
      "stateMutability": "nonpayable",
      "type": "function"
    },
    {
      "inputs": [
        {
          "internalType": "uint256",
          "name": "id",
          "type": "uint256"
        }
      ],
      "name": "acceptOrder",
      "outputs": [],
      "stateMutability": "nonpayable",
      "type": "function"
    },
    {
      "inputs": [
        {
          "internalType": "uint256",
          "name": "id",
          "type": "uint256"
        }
      ],
      "name": "declineOrder",
      "outputs": [],
      "stateMutability": "nonpayable",
      "type": "function"
    }
  ],
  "bytecode": "0x60806040526000600255600060035534801561001a57600080fd5b506117e68061002a6000396000f3fe608060405234801561001057600080fd5b50600436106100cf5760003560e01c806384e9d5381161008c578063ccbdb85c11610066578063ccbdb85c146101d6578063d09ef241146101f2578063e704b50714610229578063ef18e9ed14610245576100cf565b806384e9d538146101825780638cf441f01461019e578063be278979146101ba576100cf565b8063056bc4da146100d457806318fba3be146100de57806335daa731146100fc57806342b50a7a1461011a5780636c4840421461014a57806375f8e5de14610166575b600080fd5b6100dc610261565b005b6100e6610278565b6040516100f39190610fed565b60405180910390f35b61010461027e565b6040516101119190610fed565b60405180910390f35b610134600480360381019061012f9190611048565b610284565b6040516101419190610fed565b60405180910390f35b610164600480360381019061015f9190611048565b6102a1565b005b610180600480360381019061017b9190611048565b6103b6565b005b61019c60048036038101906101979190611048565b6104cb565b005b6101b860048036038101906101b39190611048565b6105e0565b005b6101d460048036038101906101cf9190611219565b6106f5565b005b6101f060048036038101906101eb9190611048565b61096e565b005b61020c60048036038101906102079190611048565b610a7d565b6040516102209897969594939291906113e3565b60405180910390f35b610243600480360381019061023e9190611048565b610db0565b005b61025f600480360381019061025a9190611048565b610ec5565b005b6001600354610270919061149e565b600381905550565b60035481565b60025481565b600060016000838152602001908152602001600020549050919050565b60006102ac82610284565b90503373ffffffffffffffffffffffffffffffffffffffff1660008083815260200190815260200160002060050160009054906101000a900473ffffffffffffffffffffffffffffffffffffffff1673ffffffffffffffffffffffffffffffffffffffff161461031b57600080fd5b6002600681111561032f5761032e61136c565b5b60008083815260200190815260200160002060060160149054906101000a900460ff1660068111156103645761036361136c565b5b1461036e57600080fd5b6000806000838152602001908152602001600020905060038160060160146101000a81548160ff021916908360068111156103ac576103ab61136c565b5b0217905550505050565b60006103c182610284565b90503373ffffffffffffffffffffffffffffffffffffffff1660008083815260200190815260200160002060030160009054906101000a900473ffffffffffffffffffffffffffffffffffffffff1673ffffffffffffffffffffffffffffffffffffffff161461043057600080fd5b600060068111156104445761044361136c565b5b60008083815260200190815260200160002060060160149054906101000a900460ff1660068111156104795761047861136c565b5b1461048357600080fd5b6000806000838152602001908152602001600020905060018160060160146101000a81548160ff021916908360068111156104c1576104c061136c565b5b0217905550505050565b60006104d682610284565b90503373ffffffffffffffffffffffffffffffffffffffff1660008083815260200190815260200160002060050160009054906101000a900473ffffffffffffffffffffffffffffffffffffffff1673ffffffffffffffffffffffffffffffffffffffff161461054557600080fd5b600160068111156105595761055861136c565b5b60008083815260200190815260200160002060060160149054906101000a900460ff16600681111561058e5761058d61136c565b5b1461059857600080fd5b6000806000838152602001908152602001600020905060028160060160146101000a81548160ff021916908360068111156105d6576105d561136c565b5b0217905550505050565b60006105eb82610284565b90503373ffffffffffffffffffffffffffffffffffffffff1660008083815260200190815260200160002060060160009054906101000a900473ffffffffffffffffffffffffffffffffffffffff1673ffffffffffffffffffffffffffffffffffffffff161461065a57600080fd5b6004600681111561066e5761066d61136c565b5b60008083815260200190815260200160002060060160149054906101000a900460ff1660068111156106a3576106a261136c565b5b146106ad57600080fd5b6000806000838152602001908152602001600020905060028160060160146101000a81548160ff021916908360068111156106eb576106ea61136c565b5b0217905550505050565b60405180610100016040528060035481526020018781526020018681526020018573ffffffffffffffffffffffffffffffffffffffff1681526020018473ffffffffffffffffffffffffffffffffffffffff1681526020018373ffffffffffffffffffffffffffffffffffffffff1681526020018273ffffffffffffffffffffffffffffffffffffffff168152602001600060068111156107995761079861136c565b5b81525060008060025481526020019081526020016000206000820151816000015560208201518160010190816107cf91906116de565b5060408201518160020190816107e591906116de565b5060608201518160030160006101000a81548173ffffffffffffffffffffffffffffffffffffffff021916908373ffffffffffffffffffffffffffffffffffffffff16021790555060808201518160040160006101000a81548173ffffffffffffffffffffffffffffffffffffffff021916908373ffffffffffffffffffffffffffffffffffffffff16021790555060a08201518160050160006101000a81548173ffffffffffffffffffffffffffffffffffffffff021916908373ffffffffffffffffffffffffffffffffffffffff16021790555060c08201518160060160006101000a81548173ffffffffffffffffffffffffffffffffffffffff021916908373ffffffffffffffffffffffffffffffffffffffff16021790555060e08201518160060160146101000a81548160ff0219169083600681111561092d5761092c61136c565b5b0217905550905050600254600160006003548152602001908152602001600020819055506001600254610960919061149e565b600281905550505050505050565b600061097982610284565b90503373ffffffffffffffffffffffffffffffffffffffff1660008083815260200190815260200160002060040160009054906101000a900473ffffffffffffffffffffffffffffffffffffffff1673ffffffffffffffffffffffffffffffffffffffff16146109e857600080fd5b600360068111156109fc576109fb61136c565b5b60008083815260200190815260200160002060060160149054906101000a900460ff166006811115610a3157610a3061136c565b5b14610a3b57600080fd5b600660008083815260200190815260200160002060060160146101000a81548160ff02191690836006811115610a7457610a7361136c565b5b02179055505050565b60006060806000806000806000806000808b81526020019081526020016000206040518061010001604052908160008201548152602001600182018054610ac390611501565b80601f0160208091040260200160405190810160405280929190818152602001828054610aef90611501565b8015610b3c5780601f10610b1157610100808354040283529160200191610b3c565b820191906000526020600020905b815481529060010190602001808311610b1f57829003601f168201915b50505050508152602001600282018054610b5590611501565b80601f0160208091040260200160405190810160405280929190818152602001828054610b8190611501565b8015610bce5780601f10610ba357610100808354040283529160200191610bce565b820191906000526020600020905b815481529060010190602001808311610bb157829003601f168201915b505050505081526020016003820160009054906101000a900473ffffffffffffffffffffffffffffffffffffffff1673ffffffffffffffffffffffffffffffffffffffff1673ffffffffffffffffffffffffffffffffffffffff1681526020016004820160009054906101000a900473ffffffffffffffffffffffffffffffffffffffff1673ffffffffffffffffffffffffffffffffffffffff1673ffffffffffffffffffffffffffffffffffffffff1681526020016005820160009054906101000a900473ffffffffffffffffffffffffffffffffffffffff1673ffffffffffffffffffffffffffffffffffffffff1673ffffffffffffffffffffffffffffffffffffffff1681526020016006820160009054906101000a900473ffffffffffffffffffffffffffffffffffffffff1673ffffffffffffffffffffffffffffffffffffffff1673ffffffffffffffffffffffffffffffffffffffff1681526020016006820160149054906101000a900460ff166006811115610d5457610d5361136c565b5b6006811115610d6657610d6561136c565b5b815250509050806000015181602001518260400151836060015184608001518560a001518660c001518760e001519850985098509850985098509850985050919395975091939597565b6000610dbb82610284565b90503373ffffffffffffffffffffffffffffffffffffffff1660008083815260200190815260200160002060060160009054906101000a900473ffffffffffffffffffffffffffffffffffffffff1673ffffffffffffffffffffffffffffffffffffffff1614610e2a57600080fd5b60026006811115610e3e57610e3d61136c565b5b60008083815260200190815260200160002060060160149054906101000a900460ff166006811115610e7357610e7261136c565b5b14610e7d57600080fd5b6000806000838152602001908152602001600020905060048160060160146101000a81548160ff02191690836006811115610ebb57610eba61136c565b5b0217905550505050565b6000610ed082610284565b90503373ffffffffffffffffffffffffffffffffffffffff1660008083815260200190815260200160002060040160009054906101000a900473ffffffffffffffffffffffffffffffffffffffff1673ffffffffffffffffffffffffffffffffffffffff1614610f3f57600080fd5b60036006811115610f5357610f5261136c565b5b60008083815260200190815260200160002060060160149054906101000a900460ff166006811115610f8857610f8761136c565b5b14610f9257600080fd5b600560008083815260200190815260200160002060060160146101000a81548160ff02191690836006811115610fcb57610fca61136c565b5b02179055505050565b6000819050919050565b610fe781610fd4565b82525050565b60006020820190506110026000830184610fde565b92915050565b6000604051905090565b600080fd5b600080fd5b61102581610fd4565b811461103057600080fd5b50565b6000813590506110428161101c565b92915050565b60006020828403121561105e5761105d611012565b5b600061106c84828501611033565b91505092915050565b600080fd5b600080fd5b6000601f19601f8301169050919050565b7f4e487b7100000000000000000000000000000000000000000000000000000000600052604160045260246000fd5b6110c88261107f565b810181811067ffffffffffffffff821117156110e7576110e6611090565b5b80604052505050565b60006110fa611008565b905061110682826110bf565b919050565b600067ffffffffffffffff82111561112657611125611090565b5b61112f8261107f565b9050602081019050919050565b82818337600083830152505050565b600061115e6111598461110b565b6110f0565b90508281526020810184848401111561117a5761117961107a565b5b61118584828561113c565b509392505050565b600082601f8301126111a2576111a1611075565b5b81356111b284826020860161114b565b91505092915050565b600073ffffffffffffffffffffffffffffffffffffffff82169050919050565b60006111e6826111bb565b9050919050565b6111f6816111db565b811461120157600080fd5b50565b600081359050611213816111ed565b92915050565b60008060008060008060c0878903121561123657611235611012565b5b600087013567ffffffffffffffff81111561125457611253611017565b5b61126089828a0161118d565b965050602087013567ffffffffffffffff81111561128157611280611017565b5b61128d89828a0161118d565b955050604061129e89828a01611204565b94505060606112af89828a01611204565b93505060806112c089828a01611204565b92505060a06112d189828a01611204565b9150509295509295509295565b600081519050919050565b600082825260208201905092915050565b60005b838110156113185780820151818401526020810190506112fd565b60008484015250505050565b600061132f826112de565b61133981856112e9565b93506113498185602086016112fa565b6113528161107f565b840191505092915050565b611366816111db565b82525050565b7f4e487b7100000000000000000000000000000000000000000000000000000000600052602160045260246000fd5b600781106113ac576113ab61136c565b5b50565b60008190506113bd8261139b565b919050565b60006113cd826113af565b9050919050565b6113dd816113c2565b82525050565b6000610100820190506113f9600083018b610fde565b818103602083015261140b818a611324565b9050818103604083015261141f8189611324565b905061142e606083018861135d565b61143b608083018761135d565b61144860a083018661135d565b61145560c083018561135d565b61146260e08301846113d4565b9998505050505050505050565b7f4e487b7100000000000000000000000000000000000000000000000000000000600052601160045260246000fd5b60006114a982610fd4565b91506114b483610fd4565b92508282019050808211156114cc576114cb61146f565b5b92915050565b7f4e487b7100000000000000000000000000000000000000000000000000000000600052602260045260246000fd5b6000600282049050600182168061151957607f821691505b60208210810361152c5761152b6114d2565b5b50919050565b60008190508160005260206000209050919050565b60006020601f8301049050919050565b600082821b905092915050565b6000600883026115947fffffffffffffffffffffffffffffffffffffffffffffffffffffffffffffffff82611557565b61159e8683611557565b95508019841693508086168417925050509392505050565b6000819050919050565b60006115db6115d66115d184610fd4565b6115b6565b610fd4565b9050919050565b6000819050919050565b6115f5836115c0565b611609611601826115e2565b848454611564565b825550505050565b600090565b61161e611611565b6116298184846115ec565b505050565b5b8181101561164d57611642600082611616565b60018101905061162f565b5050565b601f8211156116925761166381611532565b61166c84611547565b8101602085101561167b578190505b61168f61168785611547565b83018261162e565b50505b505050565b600082821c905092915050565b60006116b560001984600802611697565b1980831691505092915050565b60006116ce83836116a4565b9150826002028217905092915050565b6116e7826112de565b67ffffffffffffffff811115611700576116ff611090565b5b61170a8254611501565b611715828285611651565b600060209050601f8311600181146117485760008415611736578287015190505b61174085826116c2565b8655506117a8565b601f19841661175686611532565b60005b8281101561177e57848901518255600182019150602085019450602081019050611759565b8683101561179b5784890151611797601f8916826116a4565b8355505b6001600288020188555050505b50505050505056fea2646970667358221220700f1f782d4309b3c7f5fc9f50e5cdc61630a1e13e8e3477344fe111fa49f50a64736f6c63430008110033",
  "immutableReferences": {},
  "source": "pragma solidity 0.8.17;\n\ncontract SupplyChain {\n\n  enum Status {\n    Created,\n    Processing,\n    Delivering,\n    Delivered,\n    CustomsChecking,\n    Accepted,\n    Declined\n  }\n\n  mapping(uint => Order) orders;\n  mapping(uint => uint) getOrderIndexFromId;\n  uint public ordersCount = 0;\n  uint public totalOrdersCount = 0;\n\n  struct Order {\n    uint id;\n    string title;\n    string description;\n    address supplier;\n    address customer;\n    address deliveryCompany;\n    address customs;\n    Status status;\n  }\n\n  function getOrder(\n    uint256 id\n  ) public view returns (uint, string memory, string memory, address, address, address, address, Status) {\n    Order memory order = orders[id];\n    return (\n    order.id,\n    order.title,\n    order.description,\n    order.supplier,\n    order.customer,\n    order.deliveryCompany,\n    order.customs,\n    order.status\n    );\n  }\n\n  function increaseTotalCount() public {\n    totalOrdersCount = totalOrdersCount + 1;\n  }\n\n  function getOrderById(uint _id) public view returns(uint){\n    return getOrderIndexFromId[_id];\n  }\n\n  function createOrder(\n    string memory _title,\n    string memory _description,\n    address _supplier,\n    address _customer,\n    address _deliveryCompany,\n    address _customs\n  ) public {\n    orders[ordersCount] = Order({\n    id: totalOrdersCount,\n    title: _title,\n    description: _description,\n    supplier: _supplier,\n    customer: _customer,\n    deliveryCompany: _deliveryCompany,\n    customs: _customs,\n    status: Status.Created\n    });\n\n    getOrderIndexFromId[totalOrdersCount] = ordersCount;\n    ordersCount = ordersCount + 1;\n  }\n\n  function startProcessingOrder(uint256 id) public {\n    uint index = getOrderById(id);\n\n    require(orders[index].supplier == msg.sender);\n    require(orders[index].status == Status.Created);\n\n    Order storage order = orders[index];\n    order.status = Status.Processing;\n  }\n\n  function startDeliveringOrder(uint256 id) public {\n    uint index = getOrderById(id);\n\n    require(orders[index].deliveryCompany == msg.sender);\n    require(orders[index].status == Status.Processing);\n\n    Order storage order = orders[index];\n    order.status = Status.Delivering;\n  }\n\n  function stopDeliveringOrder(uint256 id) public {\n    uint index = getOrderById(id);\n\n    require(orders[index].deliveryCompany == msg.sender);\n    require(orders[index].status == Status.Delivering);\n\n    Order storage order = orders[index];\n    order.status = Status.Delivered;\n  }\n\n  function startCustomsChecking(uint256 id) public {\n    uint index = getOrderById(id);\n\n    require(orders[index].customs == msg.sender);\n    require(orders[index].status == Status.Delivering);\n\n    Order storage order = orders[index];\n    order.status = Status.CustomsChecking;\n  }\n\n  function finishCustomsChecking(uint256 id) public {\n    uint index = getOrderById(id);\n\n    require(orders[index].customs == msg.sender);\n    require(orders[index].status == Status.CustomsChecking);\n\n    Order storage order = orders[index];\n    order.status = Status.Delivering;\n  }\n\n  function acceptOrder(uint256 id) public  {\n    uint index = getOrderById(id);\n\n    require(orders[index].customer == msg.sender);\n    require(orders[index].status == Status.Delivered);\n    orders[index].status = Status.Accepted;\n  }\n\n  function declineOrder(uint256 id) public {\n    uint index = getOrderById(id);\n\n    require(orders[index].customer == msg.sender);\n    require(orders[index].status == Status.Delivered);\n    orders[index].status = Status.Declined;\n  }\n}\n",
  "sourcePath": "/home/yurchenko-a/Desktop/skillup/web3/QuorumProject/truffle/contracts/SupplyChain.sol",
  "compiler": {
    "name": "solc",
    "version": "0.8.17+commit.8df45f5f.Emscripten.clang"
  },
  "schemaVersion": "3.4.11",
  "updatedAt": "2023-01-06T11:09:59.283Z",
  "networkType": "quorum",
  "devdoc": {
    "kind": "dev",
    "methods": {},
    "version": 1
  },
  "userdoc": {
    "kind": "user",
    "methods": {},
    "version": 1
  }
}